:100000000C9462000C948A000C948A000C948A0070
:100010000C948A000C948A000C948A000C948A0038
:100020000C948A000C948A000C948A000C948A0028
:100030000C948A000C948A000C948A000C948A0018
:100040000C9450020C948A000C941E020C94F8013B
:100050000C948A000C948A000C948A000C948A00F8
:100060000C948A000C948A000000000024002700F1
:100070002A000000000023002600290000000000E4
:10008000250028002B0004040404040404040202D4
:100090000202020203030303030301020408102007
:1000A0004080010204081020010204081020000012
:1000B0000008000201000003040700000000000027
:1000C0000000020411241FBECFEFD8E0DEBFCDBF79
:1000D00011E0A0E0B1E0ECEBF8E002C005900D9279
:1000E000A032B107D9F721E0A0E2B1E001C01D9232
:1000F000A83CB207E1F710E0C2E6D0E004C02197C7
:10010000FE010E945104C136D107C9F70E949A022C
:100110000C945C040C940000CF92DF92EF92FF925B
:100120000F931F93CF93DF936C017A018B01C0E093
:10013000D0E0CE15DF0589F0D8016D918D01D60193
:10014000ED91FC910190F081E02DC6010995892B7C
:1001500011F47E0102C02196ECCFC701DF91CF914F
:100160001F910F91FF90EF90DF90CF900895089529
:1001700080E090E00895FC01538D448D252F30E000
:10018000842F90E0821B930B541710F0CF960895A4
:1001900001970895FC01918D828D981761F0828DF1
:1001A000DF01A80FB11D5D968C91928D9F5F9F73AB
:1001B000928F90E008958FEF9FEF0895FC01918D4D
:1001C000828D981731F0828DE80FF11D858D90E0BA
:1001D00008958FEF9FEF0895FC01918D228D892F57
:1001E00090E0805C9F4F821B91098F73992708953F
:1001F0008BE291E00E94EC0021E0892B09F420E0E1
:10020000822F0895FC01848DDF01A80FB11DA35A30
:10021000BF4F2C91848D90E001968F739927848F26
:10022000A689B7892C93A089B1898C9180648C931D
:10023000938D848D981306C00288F389E02D808108
:100240008F7D80830895EF92FF920F931F93CF933A
:10025000DF93EC0181E0888F9B8D8C8D981305C016
:10026000E889F989808185FD24C0F62E0B8D10E088
:100270000F5F1F4F0F731127E02E8C8DE8120CC0FB
:100280000FB607FCFACFE889F989808185FFF5CFA1
:10029000CE010E940201F1CF8B8DFE01E80FF11D0E
:1002A000E35AFF4FF0820B8FEA89FB8980818062DD
:1002B00007C0EE89FF896083E889F98980818064BD
:1002C000808381E090E0DF91CF911F910F91FF90AB
:1002D000EF900895CF93DF93EC01888D8823C9F0C8
:1002E000EA89FB89808185FD05C0A889B9898C913F
:1002F00086FD0FC00FB607FCF5CF808185FFF2CFDA
:10030000A889B9898C9185FFEDCFCE010E940201A9
:10031000E7CFDF91CF91089580E090E0892B29F01D
:100320000E94F80081110C9400000895833081F040
:1003300028F4813099F08230A1F008958730A9F037
:100340008830B9F08430D1F4809180008F7D03C073
:10035000809180008F7780938000089584B58F7797
:1003600002C084B58F7D84BD08958091B0008F77E1
:1003700003C08091B0008F7D8093B00008953FB797
:10038000F8948091250190912601A0912701B091C8
:10039000280126B5A89B05C02F3F19F00196A11D85
:1003A000B11D3FBFBA2FA92F982F8827820F911D0B
:1003B000A11DB11DBC01CD0142E0660F771F881F52
:1003C000991F4A95D1F70895009769F0FC010190B3
:1003D0000020E9F73197AF01481B590BBC018BE2B4
:1003E00091E00C948C0080E090E008950E94570406
:1003F0001F920F920FB60F9211242F933F934F939A
:100400005F936F937F938F939F93AF93BF93EF937C
:10041000FF938BE291E00E940201FF91EF91BF9167
:10042000AF919F918F917F916F915F914F913F918C
:100430002F910F900FBE0F901F9018951F920F9243
:100440000FB60F9211242F938F939F93EF93FF93E7
:10045000E0913B01F0913C018081E0914101F091FC
:10046000420182FD12C09081809144018F5F8F73A1
:1004700020914501821751F0E0914401F0E0E55DE3
:10048000FE4F958F8093440101C08081FF91EF91D1
:100490009F918F912F910F900FBE0F901F901895E5
:1004A0001F920F920FB60F9211242F933F938F93A9
:1004B0009F93AF93BF938091210190912201A091CE
:1004C0002301B09124013091200123E0230F2D3727
:1004D00020F40196A11DB11D05C026E8230F029648
:1004E000A11DB11D20932001809321019093220131
:1004F000A0932301B09324018091250190912601BE
:10050000A0912701B09128010196A11DB11D8093F2
:10051000250190932601A0932701B0932801BF9154
:10052000AF919F918F913F912F910F900FBE0F90A0
:100530001F901895CF93DF93CDB7DEB7A1970FB675
:10054000F894DEBF0FBECDBF789484B5826084BDC1
:1005500084B5816084BD85B5826085BD85B58160C7
:1005600085BD80916E00816080936E001092810045
:100570008091810082608093810080918100816000
:1005800080938100809180008160809380008091C1
:10059000B10084608093B1008091B000816080934D
:1005A000B00080917A00846080937A0080917A0014
:1005B000826080937A0080917A00816080937A00D3
:1005C00080917A00806880937A001092C100E09157
:1005D0003B01F0913C0182E08083E0913701F09192
:1005E00038011082E0913901F0913A0180E1808375
:1005F00010924301E0913F01F091400186E0808339
:10060000E0913D01F0913E01808180618083E09125
:100610003D01F0913E01808188608083E0913D0141
:10062000F0913E01808180688083E0913D01F091EE
:100630003E0180818F7D808307EA10E0F8012491DC
:10064000E3E9F0E08491882399F090E0880F991F06
:10065000FC01E859FF4FA591B491FC01E458FF4F0C
:10066000859194918FB7F8949C91292B2C938FBFEF
:100670003AE0432E512C612C712C4BEB242E40E0A0
:10068000342E8091290190912A01019690932A019C
:100690008093290182E191E00E94E40120912901E7
:1006A00030912A016901330FEE08FF08F7FE26C0DA
:1006B000E0912B01F0912C010190F081E02D6DE291
:1006C0008BE291E0099522273327A9012C193D09D6
:1006D0004E095F0919A2CE0181966C01CA01B901C8
:1006E000A30192010E942F04605DF60162936F01E5
:1006F000211531054105510589F715C0A70196015E
:1007000019A2CE0181966C01CA01B901A30192011F
:100710000E942F04605DF60162936F01211531057F
:100720004105510589F7C6010E94E4018DE191E080
:100730000E94E401F1018491F801C490E3E9F0E042
:10074000D490DD20A1F081110E949601ED2DF0E002
:10075000EE0FFF1FEE58FF4FA591B4918C91C82268
:1007600091E080E009F490E0C92ED82E02C0C12C9F
:10077000D12CF1018491F8019490E3E9F0E08490A8
:100780008820B1F081110E949601E82DF0E0EE0F73
:10079000FF1FE458FF4FA591B4918FB7F8949C9137
:1007A000CD2819F09094992201C0992A9C928FBF6C
:1007B0000E94BF016B017C0188EE882E83E0982E99
:1007C000A12CB12C0E94BF01DC01CB018C199D0929
:1007D000AE09BF09883E9340A105B10558F0F1E08C
:1007E0008F1A9108A108B10828EEC20E23E0D21E8C
:1007F000E11CF11C81149104A104B10419F70E94B9
:100800008C013FCFEBE2F1E01382128288EE93E09D
:10081000A0E0B0E084839583A683B78384E091E071
:100820009183808385EC90E09587848784EC90E0C9
:100830009787868780EC90E0918B808B81EC90E0AD
:10084000938B828B82EC90E0958B848B86EC90E08E
:10085000978B868B118E128E138E148E0895A1E2C3
:100860001A2EAA1BBB1BFD010DC0AA1FBB1FEE1F2A
:10087000FF1FA217B307E407F50720F0A21BB30B75
:10088000E40BF50B661F771F881F991F1A9469F7F1
:1008900060957095809590959B01AC01BD01CF014D
:1008A0000895EE0FFF1F0590F491E02D099481E06B
:0C08B00090E0F8940C945C04F894FFCFE6
:1008BC000000000023018C00BB006A01EC00CA00A0
:1008CC00DE00436F6E7461646F723A20000D0A0093
:00000001FF
